{"abi":[{"type":"constructor","inputs":[{"name":"_uniswapRouter","type":"address","internalType":"address"}],"stateMutability":"nonpayable"},{"type":"function","name":"activateStrategy","inputs":[{"name":"_swapAmount","type":"uint256","internalType":"uint256"},{"name":"_frequency","type":"uint256","internalType":"uint256"}],"outputs":[],"stateMutability":"nonpayable"},{"type":"function","name":"deactivateStrategy","inputs":[],"outputs":[],"stateMutability":"nonpayable"},{"type":"function","name":"executeSwap","inputs":[{"name":"tokenOut","type":"address","internalType":"address"}],"outputs":[],"stateMutability":"payable"},{"type":"function","name":"getStrategy","inputs":[{"name":"user","type":"address","internalType":"address"}],"outputs":[{"name":"","type":"tuple","internalType":"struct SwapAutomator.UserStrategy","components":[{"name":"active","type":"bool","internalType":"bool"},{"name":"lastExecuted","type":"uint256","internalType":"uint256"},{"name":"swapAmount","type":"uint256","internalType":"uint256"},{"name":"frequency","type":"uint256","internalType":"uint256"}]}],"stateMutability":"view"},{"type":"function","name":"owner","inputs":[],"outputs":[{"name":"","type":"address","internalType":"address"}],"stateMutability":"view"},{"type":"function","name":"uniswapRouter","inputs":[],"outputs":[{"name":"","type":"address","internalType":"contract IUniswapV2Router"}],"stateMutability":"view"},{"type":"function","name":"userStrategies","inputs":[{"name":"","type":"address","internalType":"address"}],"outputs":[{"name":"active","type":"bool","internalType":"bool"},{"name":"lastExecuted","type":"uint256","internalType":"uint256"},{"name":"swapAmount","type":"uint256","internalType":"uint256"},{"name":"frequency","type":"uint256","internalType":"uint256"}],"stateMutability":"view"},{"type":"event","name":"StrategyActivated","inputs":[{"name":"user","type":"address","indexed":true,"internalType":"address"},{"name":"swapAmount","type":"uint256","indexed":false,"internalType":"uint256"},{"name":"frequency","type":"uint256","indexed":false,"internalType":"uint256"}],"anonymous":false},{"type":"event","name":"SwapExecuted","inputs":[{"name":"user","type":"address","indexed":true,"internalType":"address"},{"name":"amountIn","type":"uint256","indexed":false,"internalType":"uint256"},{"name":"timestamp","type":"uint256","indexed":false,"internalType":"uint256"}],"anonymous":false}],"bytecode":{"object":"0x608060405234801561000f575f5ffd5b506040516111a33803806111a383398181016040528101906100319190610114565b335f5f6101000a81548173ffffffffffffffffffffffffffffffffffffffff021916908373ffffffffffffffffffffffffffffffffffffffff1602179055508060015f6101000a81548173ffffffffffffffffffffffffffffffffffffffff021916908373ffffffffffffffffffffffffffffffffffffffff1602179055505061013f565b5f5ffd5b5f73ffffffffffffffffffffffffffffffffffffffff82169050919050565b5f6100e3826100ba565b9050919050565b6100f3816100d9565b81146100fd575f5ffd5b50565b5f8151905061010e816100ea565b92915050565b5f60208284031215610129576101286100b6565b5b5f61013684828501610100565b91505092915050565b6110578061014c5f395ff3fe60806040526004361061006f575f3560e01c8063735de9f71161004d578063735de9f7146100e4578063760075e21461010e5780638da5cb5b14610136578063f8806a13146101605761006f565b806321401dd114610073578063261bb46614610089578063487bb965146100a5575b5f5ffd5b34801561007e575f5ffd5b5061008761019c565b005b6100a3600480360381019061009e919061086b565b6101f4565b005b3480156100b0575f5ffd5b506100cb60048036038101906100c6919061086b565b610551565b6040516100db94939291906108c8565b60405180910390f35b3480156100ef575f5ffd5b506100f8610589565b6040516101059190610966565b60405180910390f35b348015610119575f5ffd5b50610134600480360381019061012f91906109a9565b6105ae565b005b348015610141575f5ffd5b5061014a610728565b60405161015791906109f6565b60405180910390f35b34801561016b575f5ffd5b506101866004803603810190610181919061086b565b61074c565b6040516101939190610a80565b60405180910390f35b5f60025f3373ffffffffffffffffffffffffffffffffffffffff1673ffffffffffffffffffffffffffffffffffffffff1681526020019081526020015f205f015f6101000a81548160ff021916908315150217905550565b5f60025f3373ffffffffffffffffffffffffffffffffffffffff1673ffffffffffffffffffffffffffffffffffffffff1681526020019081526020015f209050805f015f9054906101000a900460ff16610283576040517f08c379a000000000000000000000000000000000000000000000000000000000815260040161027a90610af3565b60405180910390fd5b806002015434146102c9576040517f08c379a00000000000000000000000000000000000000000000000000000000081526004016102c090610b5b565b60405180910390fd5b5f600267ffffffffffffffff8111156102e5576102e4610b79565b5b6040519080825280602002602001820160405280156103135781602001602082028036833780820191505090505b50905060015f9054906101000a900473ffffffffffffffffffffffffffffffffffffffff1673ffffffffffffffffffffffffffffffffffffffff1663ad5c46486040518163ffffffff1660e01b8152600401602060405180830381865afa158015610380573d5f5f3e3d5ffd5b505050506040513d601f19601f820116820180604052508101906103a49190610bba565b815f815181106103b7576103b6610be5565b5b602002602001019073ffffffffffffffffffffffffffffffffffffffff16908173ffffffffffffffffffffffffffffffffffffffff1681525050828160018151811061040657610405610be5565b5b602002602001019073ffffffffffffffffffffffffffffffffffffffff16908173ffffffffffffffffffffffffffffffffffffffff168152505060015f9054906101000a900473ffffffffffffffffffffffffffffffffffffffff1673ffffffffffffffffffffffffffffffffffffffff16637ff36ab5345f843361012c4261048f9190610c3f565b6040518663ffffffff1660e01b81526004016104ae9493929190610d62565b5f6040518083038185885af11580156104c9573d5f5f3e3d5ffd5b50505050506040513d5f823e3d601f19601f820116820180604052508101906104f29190610ee3565b504282600101819055503373ffffffffffffffffffffffffffffffffffffffff167f2d043ce009ff53fd444b0f4f5ff4c3f4ee293265203f77f156eeb33b595dfc4f3442604051610544929190610f2a565b60405180910390a2505050565b6002602052805f5260405f205f91509050805f015f9054906101000a900460ff16908060010154908060020154908060030154905084565b60015f9054906101000a900473ffffffffffffffffffffffffffffffffffffffff1681565b5f82116105f0576040517f08c379a00000000000000000000000000000000000000000000000000000000081526004016105e790610f9b565b60405180910390fd5b610e10811015610635576040517f08c379a000000000000000000000000000000000000000000000000000000000815260040161062c90611003565b60405180910390fd5b60405180608001604052806001151581526020015f81526020018381526020018281525060025f3373ffffffffffffffffffffffffffffffffffffffff1673ffffffffffffffffffffffffffffffffffffffff1681526020019081526020015f205f820151815f015f6101000a81548160ff0219169083151502179055506020820151816001015560408201518160020155606082015181600301559050503373ffffffffffffffffffffffffffffffffffffffff167f74a379c21d807eabfbcd343ce0337d8f42e2519e2b30cf0d3b10bad4c98f9cb4838360405161071c929190610f2a565b60405180910390a25050565b5f5f9054906101000a900473ffffffffffffffffffffffffffffffffffffffff1681565b6107546107da565b60025f8373ffffffffffffffffffffffffffffffffffffffff1673ffffffffffffffffffffffffffffffffffffffff1681526020019081526020015f206040518060800160405290815f82015f9054906101000a900460ff1615151515815260200160018201548152602001600282015481526020016003820154815250509050919050565b60405180608001604052805f151581526020015f81526020015f81526020015f81525090565b5f604051905090565b5f5ffd5b5f5ffd5b5f73ffffffffffffffffffffffffffffffffffffffff82169050919050565b5f61083a82610811565b9050919050565b61084a81610830565b8114610854575f5ffd5b50565b5f8135905061086581610841565b92915050565b5f602082840312156108805761087f610809565b5b5f61088d84828501610857565b91505092915050565b5f8115159050919050565b6108aa81610896565b82525050565b5f819050919050565b6108c2816108b0565b82525050565b5f6080820190506108db5f8301876108a1565b6108e860208301866108b9565b6108f560408301856108b9565b61090260608301846108b9565b95945050505050565b5f819050919050565b5f61092e61092961092484610811565b61090b565b610811565b9050919050565b5f61093f82610914565b9050919050565b5f61095082610935565b9050919050565b61096081610946565b82525050565b5f6020820190506109795f830184610957565b92915050565b610988816108b0565b8114610992575f5ffd5b50565b5f813590506109a38161097f565b92915050565b5f5f604083850312156109bf576109be610809565b5b5f6109cc85828601610995565b92505060206109dd85828601610995565b9150509250929050565b6109f081610830565b82525050565b5f602082019050610a095f8301846109e7565b92915050565b610a1881610896565b82525050565b610a27816108b0565b82525050565b608082015f820151610a415f850182610a0f565b506020820151610a546020850182610a1e565b506040820151610a676040850182610a1e565b506060820151610a7a6060850182610a1e565b50505050565b5f608082019050610a935f830184610a2d565b92915050565b5f82825260208201905092915050565b7f5374726174656779206e6f7420616374697665000000000000000000000000005f82015250565b5f610add601383610a99565b9150610ae882610aa9565b602082019050919050565b5f6020820190508181035f830152610b0a81610ad1565b9050919050565b7f496e636f72726563742045544820616d6f756e740000000000000000000000005f82015250565b5f610b45601483610a99565b9150610b5082610b11565b602082019050919050565b5f6020820190508181035f830152610b7281610b39565b9050919050565b7f4e487b71000000000000000000000000000000000000000000000000000000005f52604160045260245ffd5b5f81519050610bb481610841565b92915050565b5f60208284031215610bcf57610bce610809565b5b5f610bdc84828501610ba6565b91505092915050565b7f4e487b71000000000000000000000000000000000000000000000000000000005f52603260045260245ffd5b7f4e487b71000000000000000000000000000000000000000000000000000000005f52601160045260245ffd5b5f610c49826108b0565b9150610c54836108b0565b9250828201905080821115610c6c57610c6b610c12565b5b92915050565b5f819050919050565b5f610c95610c90610c8b84610c72565b61090b565b6108b0565b9050919050565b610ca581610c7b565b82525050565b5f81519050919050565b5f82825260208201905092915050565b5f819050602082019050919050565b610cdd81610830565b82525050565b5f610cee8383610cd4565b60208301905092915050565b5f602082019050919050565b5f610d1082610cab565b610d1a8185610cb5565b9350610d2583610cc5565b805f5b83811015610d55578151610d3c8882610ce3565b9750610d4783610cfa565b925050600181019050610d28565b5085935050505092915050565b5f608082019050610d755f830187610c9c565b8181036020830152610d878186610d06565b9050610d9660408301856109e7565b610da360608301846108b9565b95945050505050565b5f5ffd5b5f601f19601f8301169050919050565b610dc982610db0565b810181811067ffffffffffffffff82111715610de857610de7610b79565b5b80604052505050565b5f610dfa610800565b9050610e068282610dc0565b919050565b5f67ffffffffffffffff821115610e2557610e24610b79565b5b602082029050602081019050919050565b5f5ffd5b5f81519050610e488161097f565b92915050565b5f610e60610e5b84610e0b565b610df1565b90508083825260208201905060208402830185811115610e8357610e82610e36565b5b835b81811015610eac5780610e988882610e3a565b845260208401935050602081019050610e85565b5050509392505050565b5f82601f830112610eca57610ec9610dac565b5b8151610eda848260208601610e4e565b91505092915050565b5f60208284031215610ef857610ef7610809565b5b5f82015167ffffffffffffffff811115610f1557610f1461080d565b5b610f2184828501610eb6565b91505092915050565b5f604082019050610f3d5f8301856108b9565b610f4a60208301846108b9565b9392505050565b7f416d6f756e74206d757374206265203e203000000000000000000000000000005f82015250565b5f610f85601283610a99565b9150610f9082610f51565b602082019050919050565b5f6020820190508181035f830152610fb281610f79565b9050919050565b7f4d696e206672657175656e6379203120686f75720000000000000000000000005f82015250565b5f610fed601483610a99565b9150610ff882610fb9565b602082019050919050565b5f6020820190508181035f83015261101a81610fe1565b905091905056fea26469706673582212209f9755def68f88eee0867048efcd06a6e1f4e7dee84e199b36c19d99baac7be564736f6c63430008210033","linkReferences":{}},"methodIdentifiers":{"activateStrategy(uint256,uint256)":"760075e2","deactivateStrategy()":"21401dd1","executeSwap(address)":"261bb466","getStrategy(address)":"f8806a13","owner()":"8da5cb5b","uniswapRouter()":"735de9f7","userStrategies(address)":"487bb965"},"id":22}